{
  "contractName": "FundingFactory",
  "abi": [
    {
      "constant": true,
      "inputs": [
        {
          "name": "",
          "type": "uint256"
        }
      ],
      "name": "fundings",
      "outputs": [
        {
          "name": "",
          "type": "address"
        }
      ],
      "payable": false,
      "stateMutability": "view",
      "type": "function",
      "signature": "0xd13cb1fb"
    },
    {
      "inputs": [],
      "payable": false,
      "stateMutability": "nonpayable",
      "type": "constructor",
      "signature": "constructor"
    },
    {
      "constant": false,
      "inputs": [
        {
          "name": "_projectName",
          "type": "string"
        },
        {
          "name": "_supportMoney",
          "type": "uint256"
        },
        {
          "name": "_goalMoney",
          "type": "uint256"
        }
      ],
      "name": "createFunding",
      "outputs": [],
      "payable": false,
      "stateMutability": "nonpayable",
      "type": "function",
      "signature": "0x2a7fe4a0"
    },
    {
      "constant": true,
      "inputs": [],
      "name": "getFundings",
      "outputs": [
        {
          "name": "",
          "type": "address[]"
        }
      ],
      "payable": false,
      "stateMutability": "view",
      "type": "function",
      "signature": "0x4696a8d7"
    },
    {
      "constant": true,
      "inputs": [],
      "name": "getCreatorFundings",
      "outputs": [
        {
          "name": "",
          "type": "address[]"
        }
      ],
      "payable": false,
      "stateMutability": "view",
      "type": "function",
      "signature": "0xfc93110a"
    },
    {
      "constant": true,
      "inputs": [],
      "name": "getPlayerFundings",
      "outputs": [
        {
          "name": "",
          "type": "address[]"
        }
      ],
      "payable": false,
      "stateMutability": "view",
      "type": "function",
      "signature": "0x6f9b81e7"
    }
  ],
  "bytecode": "0x608060405234801561001057600080fd5b50600061001b610081565b604051809103906000f080158015610037573d6000803e3d6000fd5b50905080600260006101000a81548173ffffffffffffffffffffffffffffffffffffffff021916908373ffffffffffffffffffffffffffffffffffffffff16021790555050610091565b60405161032680611d0f83390190565b611c6f806100a06000396000f3fe60806040526004361061006d576000357c0100000000000000000000000000000000000000000000000000000000900463ffffffff1680632a7fe4a0146100725780634696a8d71461014e5780636f9b81e7146101ba578063d13cb1fb14610226578063fc93110a146102a1575b600080fd5b34801561007e57600080fd5b5061014c6004803603606081101561009557600080fd5b81019080803590602001906401000000008111156100b257600080fd5b8201836020820111156100c457600080fd5b803590602001918460018302840111640100000000831117156100e657600080fd5b91908080601f016020809104026020016040519081016040528093929190818152602001838380828437600081840152601f19601f820116905080830192505050505050509192919290803590602001909291908035906020019092919050505061030d565b005b34801561015a57600080fd5b5061016361054f565b6040518080602001828103825283818151815260200191508051906020019060200280838360005b838110156101a657808201518184015260208101905061018b565b505050509050019250505060405180910390f35b3480156101c657600080fd5b506101cf6105dd565b6040518080602001828103825283818151815260200191508051906020019060200280838360005b838110156102125780820151818401526020810190506101f7565b505050509050019250505060405180910390f35b34801561023257600080fd5b5061025f6004803603602081101561024957600080fd5b8101908080359060200190929190505050610730565b604051808273ffffffffffffffffffffffffffffffffffffffff1673ffffffffffffffffffffffffffffffffffffffff16815260200191505060405180910390f35b3480156102ad57600080fd5b506102b661076e565b6040518080602001828103825283818151815260200191508051906020019060200280838360005b838110156102f95780820151818401526020810190506102de565b505050509050019250505060405180910390f35b600083838333600260009054906101000a900473ffffffffffffffffffffffffffffffffffffffff1661033e610839565b80806020018681526020018581526020018473ffffffffffffffffffffffffffffffffffffffff1673ffffffffffffffffffffffffffffffffffffffff1681526020018373ffffffffffffffffffffffffffffffffffffffff1673ffffffffffffffffffffffffffffffffffffffff168152602001828103825287818151815260200191508051906020019080838360005b838110156103eb5780820151818401526020810190506103d0565b50505050905090810190601f1680156104185780820380516001836020036101000a031916815260200191505b509650505050505050604051809103906000f08015801561043d573d6000803e3d6000fd5b50905060008190806001815401808255809150509060018203906000526020600020016000909192909190916101000a81548173ffffffffffffffffffffffffffffffffffffffff021916908373ffffffffffffffffffffffffffffffffffffffff16021790555050600160003373ffffffffffffffffffffffffffffffffffffffff1673ffffffffffffffffffffffffffffffffffffffff1681526020019081526020016000208190806001815401808255809150509060018203906000526020600020016000909192909190916101000a81548173ffffffffffffffffffffffffffffffffffffffff021916908373ffffffffffffffffffffffffffffffffffffffff1602179055505050505050565b606060008054806020026020016040519081016040528092919081815260200182805480156105d357602002820191906000526020600020905b8160009054906101000a900473ffffffffffffffffffffffffffffffffffffffff1673ffffffffffffffffffffffffffffffffffffffff1681526020019060010190808311610589575b5050505050905090565b6060600260009054906101000a900473ffffffffffffffffffffffffffffffffffffffff1673ffffffffffffffffffffffffffffffffffffffff1663b949b35f336040518263ffffffff167c0100000000000000000000000000000000000000000000000000000000028152600401808273ffffffffffffffffffffffffffffffffffffffff1673ffffffffffffffffffffffffffffffffffffffff16815260200191505060006040518083038186803b15801561069a57600080fd5b505afa1580156106ae573d6000803e3d6000fd5b505050506040513d6000823e3d601f19601f8201168201806040525060208110156106d857600080fd5b8101908080516401000000008111156106f057600080fd5b8281019050602081018481111561070657600080fd5b815185602082028301116401000000008211171561072357600080fd5b5050929190505050905090565b60008181548110151561073f57fe5b906000526020600020016000915054906101000a900473ffffffffffffffffffffffffffffffffffffffff1681565b6060600160003373ffffffffffffffffffffffffffffffffffffffff1673ffffffffffffffffffffffffffffffffffffffff16815260200190815260200160002080548060200260200160405190810160405280929190818152602001828054801561082f57602002820191906000526020600020905b8160009054906101000a900473ffffffffffffffffffffffffffffffffffffffff1673ffffffffffffffffffffffffffffffffffffffff16815260200190600101908083116107e5575b5050505050905090565b6040516113fa8061084a8339019056fe608060405260008060006101000a81548160ff0219169083151502179055503480156200002b57600080fd5b50604051620013fa380380620013fa833981018060405260a08110156200005157600080fd5b8101908080516401000000008111156200006a57600080fd5b828101905060208101848111156200008157600080fd5b81518560018202830111640100000000821117156200009f57600080fd5b50509291906020018051906020019092919080519060200190929190805190602001909291908051906020019092919050505081600060016101000a81548173ffffffffffffffffffffffffffffffffffffffff021916908373ffffffffffffffffffffffffffffffffffffffff16021790555084600190805190602001906200012b92919062000192565b5083600281905550826003819055506224ea00420160048190555080600760006101000a81548173ffffffffffffffffffffffffffffffffffffffff021916908373ffffffffffffffffffffffffffffffffffffffff160217905550505050505062000241565b828054600181600116156101000203166002900490600052602060002090601f016020900481019282601f10620001d557805160ff191683800117855562000206565b8280016001018555821562000206579182015b8281111562000205578251825591602001919060010190620001e8565b5b50905062000215919062000219565b5090565b6200023e91905b808211156200023a57600081600090555060010162000220565b5090565b90565b6111a980620002516000396000f3fe6080604052600436106100f0576000357c0100000000000000000000000000000000000000000000000000000000900463ffffffff1680620d44b2146100f55780630344100614610120578063119f87471461015b57806312b58349146101655780633197cbb6146101905780633b7104f2146101bb578063481c6a75146101d257806381d12c5814610229578063890eba68146103295780638a9cfd55146103585780638b5b9ccc1461044a5780639a33e300146104b65780639f6c014014610546578063a5d5c5dc14610571578063a76594bf1461059c578063d7d1bbdb146105c7578063f71d96cb14610602575b600080fd5b34801561010157600080fd5b5061010a61067d565b6040518082815260200191505060405180910390f35b34801561012c57600080fd5b506101596004803603602081101561014357600080fd5b81019080803590602001909291905050506106ac565b005b61016361081e565b005b34801561017157600080fd5b5061017a6109f7565b6040518082815260200191505060405180910390f35b34801561019c57600080fd5b506101a5610a16565b6040518082815260200191505060405180910390f35b3480156101c757600080fd5b506101d0610a1c565b005b3480156101de57600080fd5b506101e7610ae8565b604051808273ffffffffffffffffffffffffffffffffffffffff1673ffffffffffffffffffffffffffffffffffffffff16815260200191505060405180910390f35b34801561023557600080fd5b506102626004803603602081101561024c57600080fd5b8101908080359060200190929190505050610b0e565b60405180806020018681526020018573ffffffffffffffffffffffffffffffffffffffff1673ffffffffffffffffffffffffffffffffffffffff16815260200184151515158152602001838152602001828103825287818151815260200191508051906020019080838360005b838110156102ea5780820151818401526020810190506102cf565b50505050905090810190601f1680156103175780820380516001836020036101000a031916815260200191505b50965050505050505060405180910390f35b34801561033557600080fd5b5061033e610c18565b604051808215151515815260200191505060405180910390f35b34801561036457600080fd5b506104486004803603606081101561037b57600080fd5b810190808035906020019064010000000081111561039857600080fd5b8201836020820111156103aa57600080fd5b803590602001918460018302840111640100000000831117156103cc57600080fd5b91908080601f016020809104026020016040519081016040528093929190818152602001838380828437600081840152601f19601f82011690508083019250505050505050919291929080359060200190929190803573ffffffffffffffffffffffffffffffffffffffff169060200190929190505050610c2a565b005b34801561045657600080fd5b5061045f610dc7565b6040518080602001828103825283818151815260200191508051906020019060200280838360005b838110156104a2578082015181840152602081019050610487565b505050509050019250505060405180910390f35b3480156104c257600080fd5b506104cb610e55565b6040518080602001828103825283818151815260200191508051906020019080838360005b8381101561050b5780820151818401526020810190506104f0565b50505050905090810190601f1680156105385780820380516001836020036101000a031916815260200191505b509250505060405180910390f35b34801561055257600080fd5b5061055b610ef3565b6040518082815260200191505060405180910390f35b34801561057d57600080fd5b50610586610ef9565b6040518082815260200191505060405180910390f35b3480156105a857600080fd5b506105b1610eff565b6040518082815260200191505060405180910390f35b3480156105d357600080fd5b50610600600480360360208110156105ea57600080fd5b8101908080359060200190929190505050610f0c565b005b34801561060e57600080fd5b5061063b6004803603602081101561062557600080fd5b8101908080359060200190929190505050611052565b604051808273ffffffffffffffffffffffffffffffffffffffff1673ffffffffffffffffffffffffffffffffffffffff16815260200191505060405180910390f35b60006018603c80426004540381151561069257fe5b0481151561069c57fe5b048115156106a657fe5b04905090565b600060019054906101000a900473ffffffffffffffffffffffffffffffffffffffff1673ffffffffffffffffffffffffffffffffffffffff163373ffffffffffffffffffffffffffffffffffffffff1614151561070857600080fd5b600060088281548110151561071957fe5b906000526020600020906005020190508060020160149054906101000a900460ff1615151561074757600080fd5b80600101543073ffffffffffffffffffffffffffffffffffffffff16311015151561077157600080fd5b610779610eff565b60028260040154021015151561078e57600080fd5b8060020160009054906101000a900473ffffffffffffffffffffffffffffffffffffffff1673ffffffffffffffffffffffffffffffffffffffff166108fc82600101549081150290604051600060405180830381858888f193505050501580156107fc573d6000803e3d6000fd5b5060018160020160146101000a81548160ff0219169083151502179055505050565b6002543414151561082e57600080fd5b60053390806001815401808255809150509060018203906000526020600020016000909192909190916101000a81548173ffffffffffffffffffffffffffffffffffffffff021916908373ffffffffffffffffffffffffffffffffffffffff160217905550506001600660003373ffffffffffffffffffffffffffffffffffffffff1673ffffffffffffffffffffffffffffffffffffffff16815260200190815260200160002060006101000a81548160ff021916908315150217905550600760009054906101000a900473ffffffffffffffffffffffffffffffffffffffff1673ffffffffffffffffffffffffffffffffffffffff1663b1c4907933306040518363ffffffff167c0100000000000000000000000000000000000000000000000000000000028152600401808373ffffffffffffffffffffffffffffffffffffffff1673ffffffffffffffffffffffffffffffffffffffff1681526020018273ffffffffffffffffffffffffffffffffffffffff1673ffffffffffffffffffffffffffffffffffffffff16815260200192505050600060405180830381600087803b1580156109dd57600080fd5b505af11580156109f1573d6000803e3d6000fd5b50505050565b60003073ffffffffffffffffffffffffffffffffffffffff1631905090565b60045481565b600060019054906101000a900473ffffffffffffffffffffffffffffffffffffffff1673ffffffffffffffffffffffffffffffffffffffff163373ffffffffffffffffffffffffffffffffffffffff16141515610a7857600080fd5b6000809054906101000a900460ff16151515610a9357600080fd5b6004544210151515610aa457600080fd5b6003543073ffffffffffffffffffffffffffffffffffffffff163110151515610acc57600080fd5b60016000806101000a81548160ff021916908315150217905550565b600060019054906101000a900473ffffffffffffffffffffffffffffffffffffffff1681565b600881815481101515610b1d57fe5b9060005260206000209060050201600091509050806000018054600181600116156101000203166002900480601f016020809104026020016040519081016040528092919081815260200182805460018160011615610100020316600290048015610bc95780601f10610b9e57610100808354040283529160200191610bc9565b820191906000526020600020905b815481529060010190602001808311610bac57829003601f168201915b5050505050908060010154908060020160009054906101000a900473ffffffffffffffffffffffffffffffffffffffff16908060020160149054906101000a900460ff16908060040154905085565b6000809054906101000a900460ff1681565b600060019054906101000a900473ffffffffffffffffffffffffffffffffffffffff1673ffffffffffffffffffffffffffffffffffffffff163373ffffffffffffffffffffffffffffffffffffffff16141515610c8657600080fd5b813073ffffffffffffffffffffffffffffffffffffffff163110151515610cac57600080fd5b610cb4611090565b60a0604051908101604052808581526020018481526020018373ffffffffffffffffffffffffffffffffffffffff16815260200160001515815260200160008152509050600881908060018154018082558091505090600182039060005260206000209060050201600090919290919091506000820151816000019080519060200190610d429291906110d8565b506020820151816001015560408201518160020160006101000a81548173ffffffffffffffffffffffffffffffffffffffff021916908373ffffffffffffffffffffffffffffffffffffffff16021790555060608201518160020160146101000a81548160ff0219169083151502179055506080820151816004015550505050505050565b60606005805480602002602001604051908101604052809291908181526020018280548015610e4b57602002820191906000526020600020905b8160009054906101000a900473ffffffffffffffffffffffffffffffffffffffff1673ffffffffffffffffffffffffffffffffffffffff1681526020019060010190808311610e01575b5050505050905090565b60018054600181600116156101000203166002900480601f016020809104026020016040519081016040528092919081815260200182805460018160011615610100020316600290048015610eeb5780601f10610ec057610100808354040283529160200191610eeb565b820191906000526020600020905b815481529060010190602001808311610ece57829003601f168201915b505050505081565b60035481565b60025481565b6000600580549050905090565b600660003373ffffffffffffffffffffffffffffffffffffffff1673ffffffffffffffffffffffffffffffffffffffff16815260200190815260200160002060009054906101000a900460ff161515610f6457600080fd5b6000600882815481101515610f7557fe5b906000526020600020906005020190508060030160003373ffffffffffffffffffffffffffffffffffffffff1673ffffffffffffffffffffffffffffffffffffffff16815260200190815260200160002060009054906101000a900460ff16151515610fe057600080fd5b60018160030160003373ffffffffffffffffffffffffffffffffffffffff1673ffffffffffffffffffffffffffffffffffffffff16815260200190815260200160002060006101000a81548160ff02191690831515021790555080600401600081548092919060010191905055505050565b60058181548110151561106157fe5b906000526020600020016000915054906101000a900473ffffffffffffffffffffffffffffffffffffffff1681565b60a0604051908101604052806060815260200160008152602001600073ffffffffffffffffffffffffffffffffffffffff168152602001600015158152602001600081525090565b828054600181600116156101000203166002900490600052602060002090601f016020900481019282601f1061111957805160ff1916838001178555611147565b82800160010185558215611147579182015b8281111561114657825182559160200191906001019061112b565b5b5090506111549190611158565b5090565b61117a91905b8082111561117657600081600090555060010161115e565b5090565b9056fea165627a7a72305820eb53465e89bca60c8c3fbb54c3f241ed1fddc812554a162a7353bcb7ecf560890029a165627a7a7230582029cb5e86fce2b1b7c0479cc2b0374edd994526ffef98a010b15b869547b157740029608060405234801561001057600080fd5b50610306806100206000396000f3fe60806040526004361061004c576000357c0100000000000000000000000000000000000000000000000000000000900463ffffffff168063b1c4907914610051578063b949b35f146100c2575b600080fd5b34801561005d57600080fd5b506100c06004803603604081101561007457600080fd5b81019080803573ffffffffffffffffffffffffffffffffffffffff169060200190929190803573ffffffffffffffffffffffffffffffffffffffff169060200190929190505050610168565b005b3480156100ce57600080fd5b50610111600480360360208110156100e557600080fd5b81019080803573ffffffffffffffffffffffffffffffffffffffff16906020019092919050505061020e565b6040518080602001828103825283818151815260200191508051906020019060200280838360005b83811015610154578082015181840152602081019050610139565b505050509050019250505060405180910390f35b6000808373ffffffffffffffffffffffffffffffffffffffff1673ffffffffffffffffffffffffffffffffffffffff1681526020019081526020016000208190806001815401808255809150509060018203906000526020600020016000909192909190916101000a81548173ffffffffffffffffffffffffffffffffffffffff021916908373ffffffffffffffffffffffffffffffffffffffff160217905550505050565b60606000808373ffffffffffffffffffffffffffffffffffffffff1673ffffffffffffffffffffffffffffffffffffffff1681526020019081526020016000208054806020026020016040519081016040528092919081815260200182805480156102ce57602002820191906000526020600020905b8160009054906101000a900473ffffffffffffffffffffffffffffffffffffffff1673ffffffffffffffffffffffffffffffffffffffff1681526020019060010190808311610284575b5050505050905091905056fea165627a7a72305820c1e0150c647b8cb6cd7695a32528bc3a0f1dc0b0a1d3e6f9f8975e361aed12920029",
  "source": "pragma solidity >=0.4.25;\n\ncontract PlayerToFundings{\n    // 参与者=> 合约地址数组 \n    mapping(address => address[]) playerToFundings;\n    \n    function join(address player, address fundingAddress) public {\n        playerToFundings[player].push(fundingAddress);\n    }\n    \n    function getPlayerFundings(address player) public view returns(address[] memory){\n        return playerToFundings[player];\n    }\n    \n}\n\ncontract FundingFactory {\n    \n    //存储所有已经部署的智能合约的地址 \n    address[] public fundings;\n    \n    // 创建者=> 合约地址数组 \n    mapping(address => address[]) creatorToFundings;\n    \n    PlayerToFundings p2f;\n    constructor() public{\n        PlayerToFundings p2fAddress = new PlayerToFundings();\n        p2f = PlayerToFundings(p2fAddress);\n    }\n    \n    function createFunding(string memory _projectName, uint _supportMoney, uint _goalMoney) public {\n        Funding funding = new Funding(_projectName, _supportMoney, _goalMoney, msg.sender, p2f);\n        fundings.push(address(funding));\n        \n        // 把创建者创建的合约地址保存到其数组中\n        creatorToFundings[msg.sender].push(address(funding));\n    }\n    \n    // 路人 查看所有众筹项目列表\n    function getFundings() public view returns(address[] memory){\n        return fundings;\n    }\n    \n    // 创建者 查看调用者创建的所有众筹项目地址\n    function getCreatorFundings() public view returns(address[] memory){\n        return creatorToFundings[msg.sender];\n    }\n    \n    // 参与者 \n    function getPlayerFundings() public view returns(address[] memory){\n        return p2f.getPlayerFundings(msg.sender);\n    }\n}\n\ncontract Funding {\n    \n    // 众筹成功标记\n    bool public flag = false;\n    // 众筹发起人地址(众筹发起人)\n    address public manager;\n    // 项目名称\n    string public projectName;\n    // 众筹参与人需要付的钱\n    uint public supportMoney;\n    // 目标募集的资金(endTime后,达不到目标则众筹失败)\n    uint public goalMoney;\n    // 默认众筹结束的时间,为众筹发起后的一个月\n    uint public endTime;\n    // 众筹参与人的数组\n    address[] public players;\n    mapping(address=>bool) playersMap;\n    \n    PlayerToFundings p2f;\n    \n    // 付款请求的数组\n    Request[] public requests; \n    \n    struct Request {\n        // 描述这笔付款请求是干啥的\n        string description;\n        // 花多少钱, 钱要少于balance\n        uint money;\n        // 钱汇给谁. 真正的收钱方\n        address payable shopAddress;\n        // 代表当前付款请求已经处理完毕\n        bool complete;\n        // 已投票的用户地址\n        mapping(address=>bool) votedMap;\n        uint votedCount;\n    } \n    \n    //构造函数\n    constructor(string memory _projectName, uint _supportMoney, uint _goalMoney, address sender, PlayerToFundings _p2f) public{\n        manager = sender;\n        projectName =_projectName;\n        supportMoney = _supportMoney;\n        goalMoney = _goalMoney;\n        endTime = now + 4 weeks;\n        p2f = _p2f;\n    }\n\n    // 我要支持(需要付钱)\n    function support() public payable{\n        require(msg.value == supportMoney);\n        // 放进集合中\n        players.push(msg.sender);\n        playersMap[msg.sender] = true;\n        p2f.join(msg.sender, address(this));\n    }\n    \n    // 付款申请函数,由众筹发起人调用\n    function createRequest(string memory _description, uint _money, address payable _shopAddress) public onlyManagerCanCall{\n        // 余额大于等于付款请求 \n        require(address(this).balance >= _money);\n        \n        Request memory request = Request({\n            description: _description,\n            money: _money,\n            shopAddress: _shopAddress,\n            complete: false,\n            votedCount: 0\n        });\n        \n        requests.push(request);\n    }\n    \n    // 付款批准函数, 由众筹参与人调用\n    function approveRequest(uint index) public {\n        // 是否是众筹参与者\n        require(playersMap[msg.sender]);\n        \n        // 防止一个人重复投票\n        Request storage request = requests[index];\n        require(!request.votedMap[msg.sender]);\n        \n        request.votedMap[msg.sender] = true;\n        request.votedCount++;\n    }\n    // 众筹发起人调用, 可以调用完成付款\n    function finalizeRequest(uint index) public onlyManagerCanCall{\n        \n        Request storage request = requests[index];\n        require(!request.complete);\n        // 钱够\n        require(address(this).balance >= request.money);\n        // 人数过半\n        require(request.votedCount * 2 >= getPlayersCount());\n        \n        // 执行转账操作\n        request.shopAddress.transfer(request.money);\n        request.complete = true;\n    }\n    \n    \n    // 所有参与者\n    function getPlayers() public view returns(address[] memory){\n        return players;\n    }\n    // 所有参与者个数\n    function getPlayersCount() public view returns(uint){\n        return players.length;\n    }\n    // 获取合约的余额\n    function getTotalBalance() public view returns(uint){\n        return address(this).balance;\n    }\n    // 获取剩余天数\n    function getRemainDays() public view returns(uint) {\n        return (endTime - now) / 60 / 60 / 24;\n    }\n    // 检查众筹状态\n    function checkStatus() public onlyManagerCanCall {\n        require(!flag);\n        \n        // 到期\n        require(now >= endTime);\n        // getTotalBalance金额>= goalMoney\n        require(address(this).balance >= goalMoney);\n        \n        flag = true;\n    }\n    \n    modifier onlyManagerCanCall {\n        require(msg.sender == manager);\n        _;\n    }\n}\n",
  "sourcePath": "/home/bicycle/bicycle/gitResp/cysky/crowdfunding/contracts/crowdfunding.sol",
  "compiler": {
    "name": "solc",
    "version": "0.5.0+commit.1d4f565a.Emscripten.clang"
  },
  "schemaVersion": "3.0.1",
  "updatedAt": "2019-02-04T10:11:54.511Z",
  "devdoc": {
    "methods": {}
  },
  "userdoc": {
    "methods": {}
  }
}