{
  "contractName": "Funding",
  "abi": [
    {
      "constant": true,
      "inputs": [],
      "name": "endTime",
      "outputs": [
        {
          "name": "",
          "type": "uint256"
        }
      ],
      "payable": false,
      "stateMutability": "view",
      "type": "function"
    },
    {
      "constant": true,
      "inputs": [],
      "name": "manager",
      "outputs": [
        {
          "name": "",
          "type": "address"
        }
      ],
      "payable": false,
      "stateMutability": "view",
      "type": "function"
    },
    {
      "constant": true,
      "inputs": [],
      "name": "flag",
      "outputs": [
        {
          "name": "",
          "type": "bool"
        }
      ],
      "payable": false,
      "stateMutability": "view",
      "type": "function"
    },
    {
      "constant": true,
      "inputs": [],
      "name": "projectName",
      "outputs": [
        {
          "name": "",
          "type": "string"
        }
      ],
      "payable": false,
      "stateMutability": "view",
      "type": "function"
    },
    {
      "constant": true,
      "inputs": [],
      "name": "goalMoney",
      "outputs": [
        {
          "name": "",
          "type": "uint256"
        }
      ],
      "payable": false,
      "stateMutability": "view",
      "type": "function"
    },
    {
      "constant": true,
      "inputs": [],
      "name": "supportMoney",
      "outputs": [
        {
          "name": "",
          "type": "uint256"
        }
      ],
      "payable": false,
      "stateMutability": "view",
      "type": "function"
    },
    {
      "constant": true,
      "inputs": [
        {
          "name": "",
          "type": "uint256"
        }
      ],
      "name": "players",
      "outputs": [
        {
          "name": "",
          "type": "address"
        }
      ],
      "payable": false,
      "stateMutability": "view",
      "type": "function"
    },
    {
      "inputs": [
        {
          "name": "_projectName",
          "type": "string"
        },
        {
          "name": "_goalMoney",
          "type": "uint256"
        },
        {
          "name": "sender",
          "type": "address"
        },
        {
          "name": "_p2f",
          "type": "address"
        }
      ],
      "payable": false,
      "stateMutability": "nonpayable",
      "type": "constructor"
    },
    {
      "constant": false,
      "inputs": [],
      "name": "support",
      "outputs": [],
      "payable": true,
      "stateMutability": "payable",
      "type": "function"
    },
    {
      "constant": true,
      "inputs": [],
      "name": "getPlayers",
      "outputs": [
        {
          "name": "",
          "type": "address[]"
        }
      ],
      "payable": false,
      "stateMutability": "view",
      "type": "function"
    },
    {
      "constant": true,
      "inputs": [],
      "name": "getPlayersCount",
      "outputs": [
        {
          "name": "",
          "type": "uint256"
        }
      ],
      "payable": false,
      "stateMutability": "view",
      "type": "function"
    },
    {
      "constant": true,
      "inputs": [],
      "name": "getTotalBalance",
      "outputs": [
        {
          "name": "",
          "type": "uint256"
        }
      ],
      "payable": false,
      "stateMutability": "view",
      "type": "function"
    },
    {
      "constant": true,
      "inputs": [],
      "name": "getRemainDays",
      "outputs": [
        {
          "name": "",
          "type": "uint256"
        }
      ],
      "payable": false,
      "stateMutability": "view",
      "type": "function"
    },
    {
      "constant": false,
      "inputs": [],
      "name": "checkStatus",
      "outputs": [],
      "payable": false,
      "stateMutability": "nonpayable",
      "type": "function"
    }
  ],
  "bytecode": "0x608060405260008060006101000a81548160ff0219169083151502179055506000600a5534801561002f57600080fd5b50604051610bef380380610bef8339810180604052608081101561005257600080fd5b81019080805164010000000081111561006a57600080fd5b8281019050602081018481111561008057600080fd5b815185600182028301116401000000008211171561009d57600080fd5b505092919060200180519060200190929190805190602001909291908051906020019092919050505081600060016101000a81548173ffffffffffffffffffffffffffffffffffffffff021916908373ffffffffffffffffffffffffffffffffffffffff160217905550836001908051906020019061011d92919061017b565b50826003819055506224ea00420160048190555080600860006101000a81548173ffffffffffffffffffffffffffffffffffffffff021916908373ffffffffffffffffffffffffffffffffffffffff16021790555050505050610220565b828054600181600116156101000203166002900490600052602060002090601f016020900481019282601f106101bc57805160ff19168380011785556101ea565b828001600101855582156101ea579182015b828111156101e95782518255916020019190600101906101ce565b5b5090506101f791906101fb565b5090565b61021d91905b80821115610219576000816000905550600101610201565b5090565b90565b6109c08061022f6000396000f3fe6080604052600436106100c4576000357c0100000000000000000000000000000000000000000000000000000000900463ffffffff1680620d44b2146100c9578063119f8747146100f457806312b58349146100fe5780633197cbb6146101295780633b7104f214610154578063481c6a751461016b578063890eba68146101c25780638b5b9ccc146101f15780639a33e3001461025d5780639f6c0140146102ed578063a5d5c5dc14610318578063a76594bf14610343578063f71d96cb1461036e575b600080fd5b3480156100d557600080fd5b506100de6103e9565b6040518082815260200191505060405180910390f35b6100fc610418565b005b34801561010a57600080fd5b506101136106e8565b6040518082815260200191505060405180910390f35b34801561013557600080fd5b5061013e610707565b6040518082815260200191505060405180910390f35b34801561016057600080fd5b5061016961070d565b005b34801561017757600080fd5b506101806107d9565b604051808273ffffffffffffffffffffffffffffffffffffffff1673ffffffffffffffffffffffffffffffffffffffff16815260200191505060405180910390f35b3480156101ce57600080fd5b506101d76107ff565b604051808215151515815260200191505060405180910390f35b3480156101fd57600080fd5b50610206610811565b6040518080602001828103825283818151815260200191508051906020019060200280838360005b8381101561024957808201518184015260208101905061022e565b505050509050019250505060405180910390f35b34801561026957600080fd5b5061027261089f565b6040518080602001828103825283818151815260200191508051906020019080838360005b838110156102b2578082015181840152602081019050610297565b50505050905090810190601f1680156102df5780820380516001836020036101000a031916815260200191505b509250505060405180910390f35b3480156102f957600080fd5b5061030261093d565b6040518082815260200191505060405180910390f35b34801561032457600080fd5b5061032d610943565b6040518082815260200191505060405180910390f35b34801561034f57600080fd5b50610358610949565b6040518082815260200191505060405180910390f35b34801561037a57600080fd5b506103a76004803603602081101561039157600080fd5b8101908080359060200190929190505050610956565b604051808273ffffffffffffffffffffffffffffffffffffffff1673ffffffffffffffffffffffffffffffffffffffff16815260200191505060405180910390f35b60006018603c8042600454038115156103fe57fe5b0481151561040857fe5b0481151561041257fe5b04905090565b600960003373ffffffffffffffffffffffffffffffffffffffff1673ffffffffffffffffffffffffffffffffffffffff16815260200190815260200160002060009054906101000a900460ff1615151561047157600080fd5b6001600960003373ffffffffffffffffffffffffffffffffffffffff1673ffffffffffffffffffffffffffffffffffffffff16815260200190815260200160002060006101000a81548160ff021916908315150217905550600a6000815480929190600101919050555060053390806001815401808255809150509060018203906000526020600020016000909192909190916101000a81548173ffffffffffffffffffffffffffffffffffffffff021916908373ffffffffffffffffffffffffffffffffffffffff160217905550506001600660003373ffffffffffffffffffffffffffffffffffffffff1673ffffffffffffffffffffffffffffffffffffffff16815260200190815260200160002060006101000a81548160ff02191690831515021790555034600760003373ffffffffffffffffffffffffffffffffffffffff1673ffffffffffffffffffffffffffffffffffffffff16815260200190815260200160002081905550600860009054906101000a900473ffffffffffffffffffffffffffffffffffffffff1673ffffffffffffffffffffffffffffffffffffffff1663b1c4907933306040518363ffffffff167c0100000000000000000000000000000000000000000000000000000000028152600401808373ffffffffffffffffffffffffffffffffffffffff1673ffffffffffffffffffffffffffffffffffffffff1681526020018273ffffffffffffffffffffffffffffffffffffffff1673ffffffffffffffffffffffffffffffffffffffff16815260200192505050600060405180830381600087803b1580156106ce57600080fd5b505af11580156106e2573d6000803e3d6000fd5b50505050565b60003073ffffffffffffffffffffffffffffffffffffffff1631905090565b60045481565b600060019054906101000a900473ffffffffffffffffffffffffffffffffffffffff1673ffffffffffffffffffffffffffffffffffffffff163373ffffffffffffffffffffffffffffffffffffffff1614151561076957600080fd5b6000809054906101000a900460ff1615151561078457600080fd5b600454421015151561079557600080fd5b6003543073ffffffffffffffffffffffffffffffffffffffff1631101515156107bd57600080fd5b60016000806101000a81548160ff021916908315150217905550565b600060019054906101000a900473ffffffffffffffffffffffffffffffffffffffff1681565b6000809054906101000a900460ff1681565b6060600580548060200260200160405190810160405280929190818152602001828054801561089557602002820191906000526020600020905b8160009054906101000a900473ffffffffffffffffffffffffffffffffffffffff1673ffffffffffffffffffffffffffffffffffffffff168152602001906001019080831161084b575b5050505050905090565b60018054600181600116156101000203166002900480601f0160208091040260200160405190810160405280929190818152602001828054600181600116156101000203166002900480156109355780601f1061090a57610100808354040283529160200191610935565b820191906000526020600020905b81548152906001019060200180831161091857829003601f168201915b505050505081565b60035481565b60025481565b6000600580549050905090565b60058181548110151561096557fe5b906000526020600020016000915054906101000a900473ffffffffffffffffffffffffffffffffffffffff168156fea165627a7a72305820fb1ced90b430420d99096a1824dc8c755bb8419d0b995060d4c9c2ac797589300029",
  "source": "pragma solidity >=0.5.0;\n\ncontract PlayerToFundings{\n    // 参与者=> 合约地址数组 \n    mapping(address => address[]) playerToFundings;\n    \n    function join(address player, address fundingAddress) public {\n        playerToFundings[player].push(fundingAddress);\n    }\n    \n    function getPlayerFundings(address player) public view returns(address[] memory){\n        return playerToFundings[player];\n    }\n    \n}\n\ncontract FundingFactory {\n    \n    //存储所有已经部署的智能合约的地址 \n    address[] public fundings;\n    \n    // 创建者=> 合约地址数组 \n    mapping(address => address[]) creatorToFundings;\n    \n    PlayerToFundings p2f;\n    constructor() public{\n        PlayerToFundings p2fAddress = new PlayerToFundings();\n        p2f = PlayerToFundings(p2fAddress);\n    }\n    \n    function createFunding(string memory _projectName, uint _goalMoney) public returns(address){\n        Funding funding = new Funding(_projectName, _goalMoney, msg.sender, p2f);\n        fundings.push(address(funding));\n        \n        // 把创建者创建的合约地址保存到其数组中\n        creatorToFundings[msg.sender].push(address(funding));\n        return address(funding);\n    }\n    \n    // 路人 查看所有众筹项目列表\n    function getFundings() public view returns(address[] memory){\n        return fundings;\n    }\n    \n    // 创建者 查看调用者创建的所有众筹项目地址\n    function getCreatorFundings() public view returns(address[] memory){\n        return creatorToFundings[msg.sender];\n    }\n    \n    // 参与者 \n    function getPlayerFundings() public view returns(address[] memory){\n        return p2f.getPlayerFundings(msg.sender);\n    }\n}\n\ncontract Funding {\n    \n    // 众筹成功标记\n    bool public flag = false;\n    // 众筹发起人地址(众筹发起人)\n    address public manager;\n    // 项目名称\n    string public projectName;\n    // 众筹参与人需要付的钱\n    uint public supportMoney;\n    // 目标募集的资金(endTime后,达不到目标则众筹失败)\n    uint public goalMoney;\n    // 默认众筹结束的时间,为众筹发起后的一个月\n    uint public endTime;\n    // 众筹参与人的数组\n    address[] public players;\n    mapping(address=>bool) playersMap;\n    //众筹参与人amount记录\n    mapping(address=>uint) playersRecord;\n    \n    PlayerToFundings p2f;\n    \n    // 已投票的用户地址\n    mapping(address=>bool) votedMap;\n    uint votedCount = 0;\n    \n    //构造函数\n    constructor(string memory _projectName, uint _goalMoney, address sender, PlayerToFundings _p2f) public{\n        manager = sender;\n        projectName =_projectName;\n        goalMoney = _goalMoney;\n        endTime = now + 4 weeks;\n        p2f = _p2f;\n    }\n\n    // 我要支持(需要付钱)\n    function support() public payable { \n        //require(msg.value == supportMoney);\n        // 检查是否符合要求\n        // 防止一个人重复此操作\n        require(!votedMap[msg.sender]);\n        //标记已经付款\n        votedMap[msg.sender] = true;\n        votedCount++;\n        // 放进集合中\n        players.push(msg.sender);\n        playersMap[msg.sender] = true;\n        playersRecord[msg.sender] = msg.value;\n        p2f.join(msg.sender, address(this));\n    }\n    \n    // 所有参与者\n    function getPlayers() public view returns(address[] memory){\n        return players;\n    }\n    // 所有参与者个数\n    function getPlayersCount() public view returns(uint){\n        return players.length;\n    }\n    // 获取合约的余额\n    function getTotalBalance() public view returns(uint){\n        return address(this).balance;\n    }\n    // 获取剩余天数\n    function getRemainDays() public view returns(uint) {\n        return (endTime - now) / 60 / 60 / 24;\n    }\n    // 检查众筹状态\n    function checkStatus() public onlyManagerCanCall {\n        require(!flag);\n        \n        // 到期\n        require(now >= endTime);\n        // getTotalBalance金额>= goalMoney\n        require(address(this).balance >= goalMoney);\n        \n        flag = true;\n    }\n    \n    modifier onlyManagerCanCall {\n        require(msg.sender == manager);\n        _;\n    }\n}\n",
  "sourcePath": "/home/bicycle/bicycle/gitResp/cysky/crowdfunding/contracts/crowdfunding.sol",
  "compiler": {
    "name": "solc",
    "version": "0.5.0+commit.1d4f565a.Emscripten.clang"
  },
  "schemaVersion": "3.0.1",
  "updatedAt": "2019-02-05T09:13:19.380Z",
  "devdoc": {
    "methods": {}
  },
  "userdoc": {
    "methods": {}
  }
}