{
  "contractName": "PlayerToFundings",
  "abi": [
    {
      "constant": false,
      "inputs": [
        {
          "name": "player",
          "type": "address"
        },
        {
          "name": "fundingAddress",
          "type": "address"
        }
      ],
      "name": "join",
      "outputs": [],
      "payable": false,
      "stateMutability": "nonpayable",
      "type": "function"
    },
    {
      "constant": true,
      "inputs": [
        {
          "name": "player",
          "type": "address"
        }
      ],
      "name": "getPlayerFundings",
      "outputs": [
        {
          "name": "",
          "type": "address[]"
        }
      ],
      "payable": false,
      "stateMutability": "view",
      "type": "function"
    }
  ],
  "bytecode": "0x608060405234801561001057600080fd5b50610306806100206000396000f3fe60806040526004361061004c576000357c0100000000000000000000000000000000000000000000000000000000900463ffffffff168063b1c4907914610051578063b949b35f146100c2575b600080fd5b34801561005d57600080fd5b506100c06004803603604081101561007457600080fd5b81019080803573ffffffffffffffffffffffffffffffffffffffff169060200190929190803573ffffffffffffffffffffffffffffffffffffffff169060200190929190505050610168565b005b3480156100ce57600080fd5b50610111600480360360208110156100e557600080fd5b81019080803573ffffffffffffffffffffffffffffffffffffffff16906020019092919050505061020e565b6040518080602001828103825283818151815260200191508051906020019060200280838360005b83811015610154578082015181840152602081019050610139565b505050509050019250505060405180910390f35b6000808373ffffffffffffffffffffffffffffffffffffffff1673ffffffffffffffffffffffffffffffffffffffff1681526020019081526020016000208190806001815401808255809150509060018203906000526020600020016000909192909190916101000a81548173ffffffffffffffffffffffffffffffffffffffff021916908373ffffffffffffffffffffffffffffffffffffffff160217905550505050565b60606000808373ffffffffffffffffffffffffffffffffffffffff1673ffffffffffffffffffffffffffffffffffffffff1681526020019081526020016000208054806020026020016040519081016040528092919081815260200182805480156102ce57602002820191906000526020600020905b8160009054906101000a900473ffffffffffffffffffffffffffffffffffffffff1673ffffffffffffffffffffffffffffffffffffffff1681526020019060010190808311610284575b5050505050905091905056fea165627a7a72305820667cc53a65c29f8d1aed6a0cb7ec43bd538c22885acc13c86c7aeb46c8db64c50029",
  "source": "pragma solidity >=0.5.0;\n\ncontract PlayerToFundings{\n    // 参与者=> 合约地址数组 \n    mapping(address => address[]) playerToFundings;\n    \n    function join(address player, address fundingAddress) public {\n        playerToFundings[player].push(fundingAddress);\n    }\n    \n    function getPlayerFundings(address player) public view returns(address[] memory){\n        return playerToFundings[player];\n    }\n    \n}\n\ncontract FundingFactory {\n    \n    //存储所有已经部署的智能合约的地址 \n    address[] public fundings;\n    \n    // 创建者=> 合约地址数组 \n    mapping(address => address[]) creatorToFundings;\n    \n    PlayerToFundings p2f;\n    constructor() public{\n        PlayerToFundings p2fAddress = new PlayerToFundings();\n        p2f = PlayerToFundings(p2fAddress);\n    }\n    \n    function createFunding(string memory _projectName, uint _supportMoney, uint _goalMoney) public {\n        Funding funding = new Funding(_projectName, _supportMoney, _goalMoney, msg.sender, p2f);\n        fundings.push(address(funding));\n        \n        // 把创建者创建的合约地址保存到其数组中\n        creatorToFundings[msg.sender].push(address(funding));\n    }\n    \n    // 路人 查看所有众筹项目列表\n    function getFundings() public view returns(address[] memory){\n        return fundings;\n    }\n    \n    // 创建者 查看调用者创建的所有众筹项目地址\n    function getCreatorFundings() public view returns(address[] memory){\n        return creatorToFundings[msg.sender];\n    }\n    \n    // 参与者 \n    function getPlayerFundings() public view returns(address[] memory){\n        return p2f.getPlayerFundings(msg.sender);\n    }\n}\n\ncontract Funding {\n    \n    // 众筹成功标记\n    bool public flag = false;\n    // 众筹发起人地址(众筹发起人)\n    address public manager;\n    // 项目名称\n    string public projectName;\n    // 众筹参与人需要付的钱\n    uint public supportMoney;\n    // 目标募集的资金(endTime后,达不到目标则众筹失败)\n    uint public goalMoney;\n    // 默认众筹结束的时间,为众筹发起后的一个月\n    uint public endTime;\n    // 众筹参与人的数组\n    address[] public players;\n    mapping(address=>bool) playersMap;\n    //众筹参与人amount记录\n    mapping(address=>uint) playersRecord;\n    \n    PlayerToFundings p2f;\n    \n    // 已投票的用户地址\n    mapping(address=>bool) votedMap;\n    uint votedCount = 0;\n    \n    //构造函数\n    constructor(string memory _projectName, uint _supportMoney, uint _goalMoney, address sender, PlayerToFundings _p2f) public{\n        manager = sender;\n        projectName =_projectName;\n        supportMoney = _supportMoney;\n        goalMoney = _goalMoney;\n        endTime = now + 4 weeks;\n        p2f = _p2f;\n    }\n\n    // 我要支持(需要付钱)\n    function support() public payable { \n        //require(msg.value == supportMoney);\n        // 检查是否符合要求\n        // 防止一个人重复此操作\n        require(!votedMap[msg.sender]);\n        //标记已经付款\n        votedMap[msg.sender] = true;\n        votedCount++;\n        // 放进集合中\n        players.push(msg.sender);\n        playersMap[msg.sender] = true;\n        playersRecord[msg.sender] = msg.value;\n        p2f.join(msg.sender, address(this));\n    }\n    \n    // 所有参与者\n    function getPlayers() public view returns(address[] memory){\n        return players;\n    }\n    // 所有参与者个数\n    function getPlayersCount() public view returns(uint){\n        return players.length;\n    }\n    // 获取合约的余额\n    function getTotalBalance() public view returns(uint){\n        return address(this).balance;\n    }\n    // 获取剩余天数\n    function getRemainDays() public view returns(uint) {\n        return (endTime - now) / 60 / 60 / 24;\n    }\n    // 检查众筹状态\n    function checkStatus() public onlyManagerCanCall {\n        require(!flag);\n        \n        // 到期\n        require(now >= endTime);\n        // getTotalBalance金额>= goalMoney\n        require(address(this).balance >= goalMoney);\n        \n        flag = true;\n    }\n    \n    modifier onlyManagerCanCall {\n        require(msg.sender == manager);\n        _;\n    }\n}\n",
  "sourcePath": "/home/bicycle/bicycle/gitResp/cysky/crowdfunding/contracts/crowdfunding.sol",
  "compiler": {
    "name": "solc",
    "version": "0.5.0+commit.1d4f565a.Emscripten.clang"
  },
  "schemaVersion": "3.0.1",
  "updatedAt": "2019-02-05T08:17:25.469Z",
  "devdoc": {
    "methods": {}
  },
  "userdoc": {
    "methods": {}
  }
}